{
  "contractName": "Election",
  "abi": [
    {
      "inputs": [],
      "stateMutability": "nonpayable",
      "type": "constructor"
    },
    {
      "anonymous": false,
      "inputs": [
        {
          "indexed": false,
          "internalType": "uint256",
          "name": "indexed_candidateId",
          "type": "uint256"
        }
      ],
      "name": "votedEvent",
      "type": "event"
    },
    {
      "inputs": [],
      "name": "CandidateCount",
      "outputs": [
        {
          "internalType": "uint256",
          "name": "",
          "type": "uint256"
        }
      ],
      "stateMutability": "view",
      "type": "function",
      "constant": true
    },
    {
      "inputs": [
        {
          "internalType": "uint256",
          "name": "",
          "type": "uint256"
        }
      ],
      "name": "candidates",
      "outputs": [
        {
          "internalType": "uint256",
          "name": "id",
          "type": "uint256"
        },
        {
          "internalType": "string",
          "name": "name",
          "type": "string"
        },
        {
          "internalType": "uint256",
          "name": "voteCount",
          "type": "uint256"
        }
      ],
      "stateMutability": "view",
      "type": "function",
      "constant": true
    },
    {
      "inputs": [
        {
          "internalType": "address",
          "name": "",
          "type": "address"
        }
      ],
      "name": "voters",
      "outputs": [
        {
          "internalType": "bool",
          "name": "",
          "type": "bool"
        }
      ],
      "stateMutability": "view",
      "type": "function",
      "constant": true
    },
    {
      "inputs": [
        {
          "internalType": "uint256",
          "name": "_candidateId",
          "type": "uint256"
        }
      ],
      "name": "vote",
      "outputs": [],
      "stateMutability": "nonpayable",
      "type": "function"
    }
  ],
  "bytecode": "0x608060405234801561001057600080fd5b506100556040518060400160405280600b81526020017f43616e646964617465203100000000000000000000000000000000000000000081525061009e60201b60201c565b6100996040518060400160405280600b81526020017f43616e646964617465203200000000000000000000000000000000000000000081525061009e60201b60201c565b6102a3565b600160008154809291906100b1906101fb565b9190505550604051806060016040528060015481526020018281526020016000815250600080600154815260200190815260200160002060008201518160000155602082015181600101908051906020019061010e92919061011f565b506040820151816002015590505050565b82805461012b90610272565b90600052602060002090601f01602090048101928261014d5760008555610194565b82601f1061016657805160ff1916838001178555610194565b82800160010185558215610194579182015b82811115610193578251825591602001919060010190610178565b5b5090506101a191906101a5565b5090565b5b808211156101be5760008160009055506001016101a6565b5090565b7f4e487b7100000000000000000000000000000000000000000000000000000000600052601160045260246000fd5b6000819050919050565b6000610206826101f1565b91507fffffffffffffffffffffffffffffffffffffffffffffffffffffffffffffffff8203610238576102376101c2565b5b600182019050919050565b7f4e487b7100000000000000000000000000000000000000000000000000000000600052602260045260246000fd5b6000600282049050600182168061028a57607f821691505b60208210810361029d5761029c610243565b5b50919050565b61062b806102b26000396000f3fe608060405234801561001057600080fd5b506004361061004c5760003560e01c80630121b93f146100515780633477ee2e1461006d5780638dd32e151461009f578063a3ec138d146100bd575b600080fd5b61006b6004803603810190610066919061032f565b6100ed565b005b6100876004803603810190610082919061032f565b61021c565b60405161009693929190610404565b60405180910390f35b6100a76102ce565b6040516100b49190610442565b60405180910390f35b6100d760048036038101906100d291906104bb565b6102d4565b6040516100e49190610503565b60405180910390f35b600260003373ffffffffffffffffffffffffffffffffffffffff1673ffffffffffffffffffffffffffffffffffffffff16815260200190815260200160002060009054906101000a900460ff161561014457600080fd5b60008111801561015657506001548111155b61015f57600080fd5b6001600260003373ffffffffffffffffffffffffffffffffffffffff1673ffffffffffffffffffffffffffffffffffffffff16815260200190815260200160002060006101000a81548160ff02191690831515021790555060008082815260200190815260200160002060020160008154809291906101dd9061054d565b91905055507ffff3c900d938d21d0990d786e819f29b8d05c1ef587b462b939609625b684b16816040516102119190610442565b60405180910390a150565b6000602052806000526040600020600091509050806000015490806001018054610245906105c4565b80601f0160208091040260200160405190810160405280929190818152602001828054610271906105c4565b80156102be5780601f10610293576101008083540402835291602001916102be565b820191906000526020600020905b8154815290600101906020018083116102a157829003601f168201915b5050505050908060020154905083565b60015481565b60026020528060005260406000206000915054906101000a900460ff1681565b600080fd5b6000819050919050565b61030c816102f9565b811461031757600080fd5b50565b60008135905061032981610303565b92915050565b600060208284031215610345576103446102f4565b5b60006103538482850161031a565b91505092915050565b610365816102f9565b82525050565b600081519050919050565b600082825260208201905092915050565b60005b838110156103a557808201518184015260208101905061038a565b838111156103b4576000848401525b50505050565b6000601f19601f8301169050919050565b60006103d68261036b565b6103e08185610376565b93506103f0818560208601610387565b6103f9816103ba565b840191505092915050565b6000606082019050610419600083018661035c565b818103602083015261042b81856103cb565b905061043a604083018461035c565b949350505050565b6000602082019050610457600083018461035c565b92915050565b600073ffffffffffffffffffffffffffffffffffffffff82169050919050565b60006104888261045d565b9050919050565b6104988161047d565b81146104a357600080fd5b50565b6000813590506104b58161048f565b92915050565b6000602082840312156104d1576104d06102f4565b5b60006104df848285016104a6565b91505092915050565b60008115159050919050565b6104fd816104e8565b82525050565b600060208201905061051860008301846104f4565b92915050565b7f4e487b7100000000000000000000000000000000000000000000000000000000600052601160045260246000fd5b6000610558826102f9565b91507fffffffffffffffffffffffffffffffffffffffffffffffffffffffffffffffff820361058a5761058961051e565b5b600182019050919050565b7f4e487b7100000000000000000000000000000000000000000000000000000000600052602260045260246000fd5b600060028204905060018216806105dc57607f821691505b6020821081036105ef576105ee610595565b5b5091905056fea26469706673582212201ae71e1bb210e6ef8ab6f128786d733754c40a759500c2725d6eae506407eca464736f6c634300080d0033",
  "immutableReferences": {},
  "source": "// SPDX-License-Identifier: MIT\r\npragma solidity >= 0.6.0 <0.9.0; \r\n\r\ncontract Election {\r\n    // We are defining a strucuture for the candidiate\r\n    struct Candidate {\r\n        uint id;\r\n        string name;\r\n        uint voteCount;\r\n    }\r\n    //store the candidate\r\n    mapping(uint => Candidate) public candidates;\r\n\r\n    // storing the candidadates count\r\n    uint public CandidateCount;\r\n\r\n    // for sotring the voters info\r\n    mapping(address => bool) public voters;\r\n\r\n     \r\n    event votedEvent (\r\n        uint indexed_candidateId\r\n    );\r\n\r\n    constructor(){\r\n        addCandidate(\"Candidate 1\");\r\n        addCandidate(\"Candidate 2\");\r\n    }\r\n\r\n    function addCandidate(string memory _name) private {\r\n        CandidateCount++;\r\n        candidates[CandidateCount] = Candidate(CandidateCount,_name,0);\r\n    }\r\n\r\n    function vote (uint _candidateId) public {\r\n        // checking if the voter has voted before or not\r\n        // if voter has voted before !voters[msg.sender] will return false thus it will revert back\r\n        require(!voters[msg.sender]);\r\n\r\n        // check if the candidate is a valid candidate\r\n        require(_candidateId > 0 && _candidateId <= CandidateCount);\r\n\r\n        // record that the voter has voted\r\n        voters[msg.sender] = true;\r\n        // update candidate vote count\r\n        candidates[_candidateId].voteCount++;\r\n\r\n        // trigger voted event\r\n        emit votedEvent(_candidateId);\r\n    }\r\n}\r\n",
  "sourcePath": "G:\\ShivangiDownloads\\election\\contracts\\Election.sol",
  "compiler": {
    "name": "solc",
    "version": "0.8.13+commit.abaa5c0e.Emscripten.clang"
  },
  "schemaVersion": "3.4.7",
  "updatedAt": "2022-05-12T15:18:49.236Z",
  "networkType": "ethereum",
  "devdoc": {
    "kind": "dev",
    "methods": {},
    "version": 1
  },
  "userdoc": {
    "kind": "user",
    "methods": {},
    "version": 1
  }
}